{
  "_format": "hh-sol-artifact-1",
  "contractName": "DegenToken",
  "sourceName": "contracts/DegenToken.sol",
  "abi": [
    {
      "inputs": [],
      "stateMutability": "nonpayable",
      "type": "constructor"
    },
    {
      "anonymous": false,
      "inputs": [
        {
          "indexed": true,
          "internalType": "address",
          "name": "owner",
          "type": "address"
        },
        {
          "indexed": true,
          "internalType": "address",
          "name": "spender",
          "type": "address"
        },
        {
          "indexed": false,
          "internalType": "uint256",
          "name": "value",
          "type": "uint256"
        }
      ],
      "name": "Approval",
      "type": "event"
    },
    {
      "anonymous": false,
      "inputs": [
        {
          "indexed": true,
          "internalType": "address",
          "name": "previousOwner",
          "type": "address"
        },
        {
          "indexed": true,
          "internalType": "address",
          "name": "newOwner",
          "type": "address"
        }
      ],
      "name": "OwnershipTransferred",
      "type": "event"
    },
    {
      "anonymous": false,
      "inputs": [
        {
          "indexed": true,
          "internalType": "address",
          "name": "from",
          "type": "address"
        },
        {
          "indexed": true,
          "internalType": "address",
          "name": "to",
          "type": "address"
        },
        {
          "indexed": false,
          "internalType": "uint256",
          "name": "value",
          "type": "uint256"
        }
      ],
      "name": "Transfer",
      "type": "event"
    },
    {
      "inputs": [
        {
          "internalType": "address",
          "name": "owner",
          "type": "address"
        },
        {
          "internalType": "address",
          "name": "spender",
          "type": "address"
        }
      ],
      "name": "allowance",
      "outputs": [
        {
          "internalType": "uint256",
          "name": "",
          "type": "uint256"
        }
      ],
      "stateMutability": "view",
      "type": "function"
    },
    {
      "inputs": [
        {
          "internalType": "address",
          "name": "spender",
          "type": "address"
        },
        {
          "internalType": "uint256",
          "name": "amount",
          "type": "uint256"
        }
      ],
      "name": "approve",
      "outputs": [
        {
          "internalType": "bool",
          "name": "",
          "type": "bool"
        }
      ],
      "stateMutability": "nonpayable",
      "type": "function"
    },
    {
      "inputs": [
        {
          "internalType": "address",
          "name": "account",
          "type": "address"
        }
      ],
      "name": "balanceOf",
      "outputs": [
        {
          "internalType": "uint256",
          "name": "",
          "type": "uint256"
        }
      ],
      "stateMutability": "view",
      "type": "function"
    },
    {
      "inputs": [
        {
          "internalType": "uint256",
          "name": "_amount",
          "type": "uint256"
        }
      ],
      "name": "burnDegen",
      "outputs": [],
      "stateMutability": "nonpayable",
      "type": "function"
    },
    {
      "inputs": [],
      "name": "checkBalance",
      "outputs": [
        {
          "internalType": "uint256",
          "name": "",
          "type": "uint256"
        }
      ],
      "stateMutability": "view",
      "type": "function"
    },
    {
      "inputs": [],
      "name": "decimals",
      "outputs": [
        {
          "internalType": "uint8",
          "name": "",
          "type": "uint8"
        }
      ],
      "stateMutability": "view",
      "type": "function"
    },
    {
      "inputs": [
        {
          "internalType": "address",
          "name": "spender",
          "type": "address"
        },
        {
          "internalType": "uint256",
          "name": "subtractedValue",
          "type": "uint256"
        }
      ],
      "name": "decreaseAllowance",
      "outputs": [
        {
          "internalType": "bool",
          "name": "",
          "type": "bool"
        }
      ],
      "stateMutability": "nonpayable",
      "type": "function"
    },
    {
      "inputs": [
        {
          "internalType": "address",
          "name": "spender",
          "type": "address"
        },
        {
          "internalType": "uint256",
          "name": "addedValue",
          "type": "uint256"
        }
      ],
      "name": "increaseAllowance",
      "outputs": [
        {
          "internalType": "bool",
          "name": "",
          "type": "bool"
        }
      ],
      "stateMutability": "nonpayable",
      "type": "function"
    },
    {
      "inputs": [
        {
          "internalType": "uint256",
          "name": "",
          "type": "uint256"
        }
      ],
      "name": "items",
      "outputs": [
        {
          "internalType": "string",
          "name": "name",
          "type": "string"
        },
        {
          "internalType": "uint256",
          "name": "cost",
          "type": "uint256"
        }
      ],
      "stateMutability": "view",
      "type": "function"
    },
    {
      "inputs": [
        {
          "internalType": "address",
          "name": "_account",
          "type": "address"
        },
        {
          "internalType": "uint256",
          "name": "_amount",
          "type": "uint256"
        }
      ],
      "name": "mintDegen",
      "outputs": [],
      "stateMutability": "nonpayable",
      "type": "function"
    },
    {
      "inputs": [],
      "name": "name",
      "outputs": [
        {
          "internalType": "string",
          "name": "",
          "type": "string"
        }
      ],
      "stateMutability": "view",
      "type": "function"
    },
    {
      "inputs": [],
      "name": "owner",
      "outputs": [
        {
          "internalType": "address",
          "name": "",
          "type": "address"
        }
      ],
      "stateMutability": "view",
      "type": "function"
    },
    {
      "inputs": [
        {
          "internalType": "string",
          "name": "_item",
          "type": "string"
        }
      ],
      "name": "redeemItem",
      "outputs": [
        {
          "internalType": "string",
          "name": "",
          "type": "string"
        }
      ],
      "stateMutability": "nonpayable",
      "type": "function"
    },
    {
      "inputs": [],
      "name": "renounceOwnership",
      "outputs": [],
      "stateMutability": "nonpayable",
      "type": "function"
    },
    {
      "inputs": [],
      "name": "showItems",
      "outputs": [
        {
          "internalType": "string",
          "name": "",
          "type": "string"
        }
      ],
      "stateMutability": "pure",
      "type": "function"
    },
    {
      "inputs": [],
      "name": "symbol",
      "outputs": [
        {
          "internalType": "string",
          "name": "",
          "type": "string"
        }
      ],
      "stateMutability": "view",
      "type": "function"
    },
    {
      "inputs": [],
      "name": "totalSupply",
      "outputs": [
        {
          "internalType": "uint256",
          "name": "",
          "type": "uint256"
        }
      ],
      "stateMutability": "view",
      "type": "function"
    },
    {
      "inputs": [
        {
          "internalType": "address",
          "name": "to",
          "type": "address"
        },
        {
          "internalType": "uint256",
          "name": "amount",
          "type": "uint256"
        }
      ],
      "name": "transfer",
      "outputs": [
        {
          "internalType": "bool",
          "name": "",
          "type": "bool"
        }
      ],
      "stateMutability": "nonpayable",
      "type": "function"
    },
    {
      "inputs": [
        {
          "internalType": "address",
          "name": "_to",
          "type": "address"
        },
        {
          "internalType": "uint256",
          "name": "_amount",
          "type": "uint256"
        }
      ],
      "name": "transferDegen",
      "outputs": [],
      "stateMutability": "nonpayable",
      "type": "function"
    },
    {
      "inputs": [
        {
          "internalType": "address",
          "name": "from",
          "type": "address"
        },
        {
          "internalType": "address",
          "name": "to",
          "type": "address"
        },
        {
          "internalType": "uint256",
          "name": "amount",
          "type": "uint256"
        }
      ],
      "name": "transferFrom",
      "outputs": [
        {
          "internalType": "bool",
          "name": "",
          "type": "bool"
        }
      ],
      "stateMutability": "nonpayable",
      "type": "function"
    },
    {
      "inputs": [
        {
          "internalType": "address",
          "name": "newOwner",
          "type": "address"
        }
      ],
      "name": "transferOwnership",
      "outputs": [],
      "stateMutability": "nonpayable",
      "type": "function"
    }
  ],
  "bytecode": "0x60806040523480156200001157600080fd5b506040518060400160405280600581526020017f446567656e0000000000000000000000000000000000000000000000000000008152506040518060400160405280600381526020017f44474e000000000000000000000000000000000000000000000000000000000081525081600390816200008f919062000605565b508060049081620000a1919062000605565b505050620000c4620000b8620000da60201b60201c565b620000e260201b60201c565b620000d4620001a860201b60201c565b620006ec565b600033905090565b6000600560009054906101000a900473ffffffffffffffffffffffffffffffffffffffff16905081600560006101000a81548173ffffffffffffffffffffffffffffffffffffffff021916908373ffffffffffffffffffffffffffffffffffffffff1602179055508173ffffffffffffffffffffffffffffffffffffffff168173ffffffffffffffffffffffffffffffffffffffff167f8be0079c531659141344cd1fd0a4f28419497f9722a3daafe3b4186f6b6457e060405160405180910390a35050565b600060405180604001604052806040518060400160405280600881526020017f446567656e4e4654000000000000000000000000000000000000000000000000815250815260200161012c8152509050600060405180604001604052806040518060400160405280600d81526020017f446567656e4b6579636861696e00000000000000000000000000000000000000815250815260200160648152509050600060405180604001604052806040518060400160405280600a81526020017f446567656e456d6f746500000000000000000000000000000000000000000000815250815260200160c8815250905060068390806001815401808255809150506001900390600052602060002090600202016000909190919091506000820151816000019081620002d9919062000605565b506020820151816001015550506006829080600181540180825580915050600190039060005260206000209060020201600090919091909150600082015181600001908162000329919062000605565b506020820151816001015550506006819080600181540180825580915050600190039060005260206000209060020201600090919091909150600082015181600001908162000379919062000605565b50602082015181600101555050505050565b600081519050919050565b7f4e487b7100000000000000000000000000000000000000000000000000000000600052604160045260246000fd5b7f4e487b7100000000000000000000000000000000000000000000000000000000600052602260045260246000fd5b600060028204905060018216806200040d57607f821691505b602082108103620004235762000422620003c5565b5b50919050565b60008190508160005260206000209050919050565b60006020601f8301049050919050565b600082821b905092915050565b6000600883026200048d7fffffffffffffffffffffffffffffffffffffffffffffffffffffffffffffffff826200044e565b6200049986836200044e565b95508019841693508086168417925050509392505050565b6000819050919050565b6000819050919050565b6000620004e6620004e0620004da84620004b1565b620004bb565b620004b1565b9050919050565b6000819050919050565b6200050283620004c5565b6200051a6200051182620004ed565b8484546200045b565b825550505050565b600090565b6200053162000522565b6200053e818484620004f7565b505050565b5b8181101562000566576200055a60008262000527565b60018101905062000544565b5050565b601f821115620005b5576200057f8162000429565b6200058a846200043e565b810160208510156200059a578190505b620005b2620005a9856200043e565b83018262000543565b50505b505050565b600082821c905092915050565b6000620005da60001984600802620005ba565b1980831691505092915050565b6000620005f58383620005c7565b9150826002028217905092915050565b62000610826200038b565b67ffffffffffffffff8111156200062c576200062b62000396565b5b620006388254620003f4565b620006458282856200056a565b600060209050601f8311600181146200067d576000841562000668578287015190505b620006748582620005e7565b865550620006e4565b601f1984166200068d8662000429565b60005b82811015620006b75784890151825560018201915060208501945060208101905062000690565b86831015620006d75784890151620006d3601f891682620005c7565b8355505b6001600288020188555050505b505050505050565b6124f680620006fc6000396000f3fe608060405234801561001057600080fd5b50600436106101375760003560e01c80638da5cb5b116100b8578063bfb231d21161007c578063bfb231d214610366578063c71daccb14610397578063c9a12f34146103b5578063dd62ed3e146103d1578063dfbe250f14610401578063f2fde38b1461041d57610137565b80638da5cb5b1461029a57806395d89b41146102b8578063a457c2d7146102d6578063a9059cbb14610306578063ac60345b1461033657610137565b806339509351116100ff57806339509351146101f65780633dd26a931461022657806370a0823114610244578063715018a614610274578063862278c41461027e57610137565b806306fdde031461013c578063095ea7b31461015a57806318160ddd1461018a57806323b872dd146101a8578063313ce567146101d8575b600080fd5b610144610439565b60405161015191906115e1565b60405180910390f35b610174600480360381019061016f91906116ab565b6104cb565b6040516101819190611706565b60405180910390f35b6101926104ee565b60405161019f9190611730565b60405180910390f35b6101c260048036038101906101bd919061174b565b6104f8565b6040516101cf9190611706565b60405180910390f35b6101e0610527565b6040516101ed91906117ba565b60405180910390f35b610210600480360381019061020b91906116ab565b610530565b60405161021d9190611706565b60405180910390f35b61022e610567565b60405161023b91906115e1565b60405180910390f35b61025e600480360381019061025991906117d5565b610588565b60405161026b9190611730565b60405180910390f35b61027c6105d0565b005b610298600480360381019061029391906116ab565b6105e4565b005b6102a261064c565b6040516102af9190611811565b60405180910390f35b6102c0610676565b6040516102cd91906115e1565b60405180910390f35b6102f060048036038101906102eb91906116ab565b610708565b6040516102fd9190611706565b60405180910390f35b610320600480360381019061031b91906116ab565b61077f565b60405161032d9190611706565b60405180910390f35b610350600480360381019061034b9190611961565b6107a2565b60405161035d91906115e1565b60405180910390f35b610380600480360381019061037b91906119aa565b610956565b60405161038e9291906119d7565b60405180910390f35b61039f610a12565b6040516103ac9190611730565b60405180910390f35b6103cf60048036038101906103ca91906116ab565b610a93565b005b6103eb60048036038101906103e69190611a07565b610aa9565b6040516103f89190611730565b60405180910390f35b61041b600480360381019061041691906119aa565b610b30565b005b610437600480360381019061043291906117d5565b610b8a565b005b60606003805461044890611a76565b80601f016020809104026020016040519081016040528092919081815260200182805461047490611a76565b80156104c15780601f10610496576101008083540402835291602001916104c1565b820191906000526020600020905b8154815290600101906020018083116104a457829003601f168201915b5050505050905090565b6000806104d6610c0d565b90506104e3818585610c15565b600191505092915050565b6000600254905090565b600080610503610c0d565b9050610510858285610dde565b61051b858585610e6a565b60019150509392505050565b60006012905090565b60008061053b610c0d565b905061055c81858561054d8589610aa9565b6105579190611ad6565b610c15565b600191505092915050565b606060405180610100016040528060c381526020016123fe60c39139905090565b60008060008373ffffffffffffffffffffffffffffffffffffffff1673ffffffffffffffffffffffffffffffffffffffff168152602001908152602001600020549050919050565b6105d86110e0565b6105e2600061115e565b565b80806105ef33610588565b1015610630576040517f08c379a000000000000000000000000000000000000000000000000000000000815260040161062790611b7c565b60405180910390fd5b61063a33836104cb565b506106463384846104f8565b50505050565b6000600560009054906101000a900473ffffffffffffffffffffffffffffffffffffffff16905090565b60606004805461068590611a76565b80601f01602080910402602001604051908101604052809291908181526020018280546106b190611a76565b80156106fe5780601f106106d3576101008083540402835291602001916106fe565b820191906000526020600020905b8154815290600101906020018083116106e157829003601f168201915b5050505050905090565b600080610713610c0d565b905060006107218286610aa9565b905083811015610766576040517f08c379a000000000000000000000000000000000000000000000000000000000815260040161075d90611c0e565b60405180910390fd5b6107738286868403610c15565b60019250505092915050565b60008061078a610c0d565b9050610797818585610e6a565b600191505092915050565b606060005b6003811015610917578280519060200120600682815481106107cc576107cb611c2e565b5b90600052602060002090600202016000016040516107ea9190611d00565b604051809103902003610904576006818154811061080b5761080a611c2e565b5b90600052602060002090600202016001015461082633610588565b1015610867576040517f08c379a000000000000000000000000000000000000000000000000000000000815260040161085e90611b7c565b60405180910390fd5b610896336006838154811061087f5761087e611c2e565b5b9060005260206000209060020201600101546104cb565b506108db33733c44cdddb6a900fa2b585dd299e03d12fa4293bc600684815481106108c4576108c3611c2e565b5b9060005260206000209060020201600101546104f8565b50826040516020016108ed9190611d79565b604051602081830303815290604052915050610951565b808061090f90611d9f565b9150506107a7565b506040518060400160405280601481526020017f4974656d20646f6573206e6f742065786973742e00000000000000000000000081525090505b919050565b6006818154811061096657600080fd5b906000526020600020906002020160009150905080600001805461098990611a76565b80601f01602080910402602001604051908101604052809291908181526020018280546109b590611a76565b8015610a025780601f106109d757610100808354040283529160200191610a02565b820191906000526020600020905b8154815290600101906020018083116109e557829003601f168201915b5050505050908060010154905082565b60003073ffffffffffffffffffffffffffffffffffffffff166370a08231336040518263ffffffff1660e01b8152600401610a4d9190611811565b602060405180830381865afa158015610a6a573d6000803e3d6000fd5b505050506040513d601f19601f82011682018060405250810190610a8e9190611dfc565b905090565b610a9b6110e0565b610aa58282611224565b5050565b6000600160008473ffffffffffffffffffffffffffffffffffffffff1673ffffffffffffffffffffffffffffffffffffffff16815260200190815260200160002060008373ffffffffffffffffffffffffffffffffffffffff1673ffffffffffffffffffffffffffffffffffffffff16815260200190815260200160002054905092915050565b8080610b3b33610588565b1015610b7c576040517f08c379a0000000000000000000000000000000000000000000000000000000008152600401610b7390611b7c565b60405180910390fd5b610b86338361137a565b5050565b610b926110e0565b600073ffffffffffffffffffffffffffffffffffffffff168173ffffffffffffffffffffffffffffffffffffffff1603610c01576040517f08c379a0000000000000000000000000000000000000000000000000000000008152600401610bf890611e9b565b60405180910390fd5b610c0a8161115e565b50565b600033905090565b600073ffffffffffffffffffffffffffffffffffffffff168373ffffffffffffffffffffffffffffffffffffffff1603610c84576040517f08c379a0000000000000000000000000000000000000000000000000000000008152600401610c7b90611f2d565b60405180910390fd5b600073ffffffffffffffffffffffffffffffffffffffff168273ffffffffffffffffffffffffffffffffffffffff1603610cf3576040517f08c379a0000000000000000000000000000000000000000000000000000000008152600401610cea90611fbf565b60405180910390fd5b80600160008573ffffffffffffffffffffffffffffffffffffffff1673ffffffffffffffffffffffffffffffffffffffff16815260200190815260200160002060008473ffffffffffffffffffffffffffffffffffffffff1673ffffffffffffffffffffffffffffffffffffffff168152602001908152602001600020819055508173ffffffffffffffffffffffffffffffffffffffff168373ffffffffffffffffffffffffffffffffffffffff167f8c5be1e5ebec7d5bd14f71427d1e84f3dd0314c0f7b2291e5b200ac8c7c3b92583604051610dd19190611730565b60405180910390a3505050565b6000610dea8484610aa9565b90507fffffffffffffffffffffffffffffffffffffffffffffffffffffffffffffffff8114610e645781811015610e56576040517f08c379a0000000000000000000000000000000000000000000000000000000008152600401610e4d9061202b565b60405180910390fd5b610e638484848403610c15565b5b50505050565b600073ffffffffffffffffffffffffffffffffffffffff168373ffffffffffffffffffffffffffffffffffffffff1603610ed9576040517f08c379a0000000000000000000000000000000000000000000000000000000008152600401610ed0906120bd565b60405180910390fd5b600073ffffffffffffffffffffffffffffffffffffffff168273ffffffffffffffffffffffffffffffffffffffff1603610f48576040517f08c379a0000000000000000000000000000000000000000000000000000000008152600401610f3f9061214f565b60405180910390fd5b610f53838383611547565b60008060008573ffffffffffffffffffffffffffffffffffffffff1673ffffffffffffffffffffffffffffffffffffffff16815260200190815260200160002054905081811015610fd9576040517f08c379a0000000000000000000000000000000000000000000000000000000008152600401610fd0906121e1565b60405180910390fd5b8181036000808673ffffffffffffffffffffffffffffffffffffffff1673ffffffffffffffffffffffffffffffffffffffff16815260200190815260200160002081905550816000808573ffffffffffffffffffffffffffffffffffffffff1673ffffffffffffffffffffffffffffffffffffffff168152602001908152602001600020600082825401925050819055508273ffffffffffffffffffffffffffffffffffffffff168473ffffffffffffffffffffffffffffffffffffffff167fddf252ad1be2c89b69c2b068fc378daa952ba7f163c4a11628f55a4df523b3ef846040516110c79190611730565b60405180910390a36110da84848461154c565b50505050565b6110e8610c0d565b73ffffffffffffffffffffffffffffffffffffffff1661110661064c565b73ffffffffffffffffffffffffffffffffffffffff161461115c576040517f08c379a00000000000000000000000000000000000000000000000000000000081526004016111539061224d565b60405180910390fd5b565b6000600560009054906101000a900473ffffffffffffffffffffffffffffffffffffffff16905081600560006101000a81548173ffffffffffffffffffffffffffffffffffffffff021916908373ffffffffffffffffffffffffffffffffffffffff1602179055508173ffffffffffffffffffffffffffffffffffffffff168173ffffffffffffffffffffffffffffffffffffffff167f8be0079c531659141344cd1fd0a4f28419497f9722a3daafe3b4186f6b6457e060405160405180910390a35050565b600073ffffffffffffffffffffffffffffffffffffffff168273ffffffffffffffffffffffffffffffffffffffff1603611293576040517f08c379a000000000000000000000000000000000000000000000000000000000815260040161128a906122b9565b60405180910390fd5b61129f60008383611547565b80600260008282546112b19190611ad6565b92505081905550806000808473ffffffffffffffffffffffffffffffffffffffff1673ffffffffffffffffffffffffffffffffffffffff168152602001908152602001600020600082825401925050819055508173ffffffffffffffffffffffffffffffffffffffff16600073ffffffffffffffffffffffffffffffffffffffff167fddf252ad1be2c89b69c2b068fc378daa952ba7f163c4a11628f55a4df523b3ef836040516113629190611730565b60405180910390a36113766000838361154c565b5050565b600073ffffffffffffffffffffffffffffffffffffffff168273ffffffffffffffffffffffffffffffffffffffff16036113e9576040517f08c379a00000000000000000000000000000000000000000000000000000000081526004016113e09061234b565b60405180910390fd5b6113f582600083611547565b60008060008473ffffffffffffffffffffffffffffffffffffffff1673ffffffffffffffffffffffffffffffffffffffff1681526020019081526020016000205490508181101561147b576040517f08c379a0000000000000000000000000000000000000000000000000000000008152600401611472906123dd565b60405180910390fd5b8181036000808573ffffffffffffffffffffffffffffffffffffffff1673ffffffffffffffffffffffffffffffffffffffff1681526020019081526020016000208190555081600260008282540392505081905550600073ffffffffffffffffffffffffffffffffffffffff168373ffffffffffffffffffffffffffffffffffffffff167fddf252ad1be2c89b69c2b068fc378daa952ba7f163c4a11628f55a4df523b3ef8460405161152e9190611730565b60405180910390a36115428360008461154c565b505050565b505050565b505050565b600081519050919050565b600082825260208201905092915050565b60005b8381101561158b578082015181840152602081019050611570565b60008484015250505050565b6000601f19601f8301169050919050565b60006115b382611551565b6115bd818561155c565b93506115cd81856020860161156d565b6115d681611597565b840191505092915050565b600060208201905081810360008301526115fb81846115a8565b905092915050565b6000604051905090565b600080fd5b600080fd5b600073ffffffffffffffffffffffffffffffffffffffff82169050919050565b600061164282611617565b9050919050565b61165281611637565b811461165d57600080fd5b50565b60008135905061166f81611649565b92915050565b6000819050919050565b61168881611675565b811461169357600080fd5b50565b6000813590506116a58161167f565b92915050565b600080604083850312156116c2576116c161160d565b5b60006116d085828601611660565b92505060206116e185828601611696565b9150509250929050565b60008115159050919050565b611700816116eb565b82525050565b600060208201905061171b60008301846116f7565b92915050565b61172a81611675565b82525050565b60006020820190506117456000830184611721565b92915050565b6000806000606084860312156117645761176361160d565b5b600061177286828701611660565b935050602061178386828701611660565b925050604061179486828701611696565b9150509250925092565b600060ff82169050919050565b6117b48161179e565b82525050565b60006020820190506117cf60008301846117ab565b92915050565b6000602082840312156117eb576117ea61160d565b5b60006117f984828501611660565b91505092915050565b61180b81611637565b82525050565b60006020820190506118266000830184611802565b92915050565b600080fd5b600080fd5b7f4e487b7100000000000000000000000000000000000000000000000000000000600052604160045260246000fd5b61186e82611597565b810181811067ffffffffffffffff8211171561188d5761188c611836565b5b80604052505050565b60006118a0611603565b90506118ac8282611865565b919050565b600067ffffffffffffffff8211156118cc576118cb611836565b5b6118d582611597565b9050602081019050919050565b82818337600083830152505050565b60006119046118ff846118b1565b611896565b9050828152602081018484840111156119205761191f611831565b5b61192b8482856118e2565b509392505050565b600082601f8301126119485761194761182c565b5b81356119588482602086016118f1565b91505092915050565b6000602082840312156119775761197661160d565b5b600082013567ffffffffffffffff81111561199557611994611612565b5b6119a184828501611933565b91505092915050565b6000602082840312156119c0576119bf61160d565b5b60006119ce84828501611696565b91505092915050565b600060408201905081810360008301526119f181856115a8565b9050611a006020830184611721565b9392505050565b60008060408385031215611a1e57611a1d61160d565b5b6000611a2c85828601611660565b9250506020611a3d85828601611660565b9150509250929050565b7f4e487b7100000000000000000000000000000000000000000000000000000000600052602260045260246000fd5b60006002820490506001821680611a8e57607f821691505b602082108103611aa157611aa0611a47565b5b50919050565b7f4e487b7100000000000000000000000000000000000000000000000000000000600052601160045260246000fd5b6000611ae182611675565b9150611aec83611675565b9250828201905080821115611b0457611b03611aa7565b5b92915050565b7f596f7520646f206e6f74206861766520656e6f75676820446567656e20546f6b60008201527f656e7320696e20796f75722077616c6c65742e00000000000000000000000000602082015250565b6000611b6660338361155c565b9150611b7182611b0a565b604082019050919050565b60006020820190508181036000830152611b9581611b59565b9050919050565b7f45524332303a2064656372656173656420616c6c6f77616e63652062656c6f7760008201527f207a65726f000000000000000000000000000000000000000000000000000000602082015250565b6000611bf860258361155c565b9150611c0382611b9c565b604082019050919050565b60006020820190508181036000830152611c2781611beb565b9050919050565b7f4e487b7100000000000000000000000000000000000000000000000000000000600052603260045260246000fd5b600081905092915050565b60008190508160005260206000209050919050565b60008154611c8a81611a76565b611c948186611c5d565b94506001821660008114611caf5760018114611cc457611cf7565b60ff1983168652811515820286019350611cf7565b611ccd85611c68565b60005b83811015611cef57815481890152600182019150602081019050611cd0565b838801955050505b50505092915050565b6000611d0c8284611c7d565b915081905092915050565b600081905092915050565b6000611d2d82611551565b611d378185611d17565b9350611d4781856020860161156d565b80840191505092915050565b7f20686173206265656e2072656465656d6564207375636365737366756c6c7921815250565b6000611d858284611d22565b9150611d9082611d53565b60208201915081905092915050565b6000611daa82611675565b91507fffffffffffffffffffffffffffffffffffffffffffffffffffffffffffffffff8203611ddc57611ddb611aa7565b5b600182019050919050565b600081519050611df68161167f565b92915050565b600060208284031215611e1257611e1161160d565b5b6000611e2084828501611de7565b91505092915050565b7f4f776e61626c653a206e6577206f776e657220697320746865207a65726f206160008201527f6464726573730000000000000000000000000000000000000000000000000000602082015250565b6000611e8560268361155c565b9150611e9082611e29565b604082019050919050565b60006020820190508181036000830152611eb481611e78565b9050919050565b7f45524332303a20617070726f76652066726f6d20746865207a65726f2061646460008201527f7265737300000000000000000000000000000000000000000000000000000000602082015250565b6000611f1760248361155c565b9150611f2282611ebb565b604082019050919050565b60006020820190508181036000830152611f4681611f0a565b9050919050565b7f45524332303a20617070726f766520746f20746865207a65726f20616464726560008201527f7373000000000000000000000000000000000000000000000000000000000000602082015250565b6000611fa960228361155c565b9150611fb482611f4d565b604082019050919050565b60006020820190508181036000830152611fd881611f9c565b9050919050565b7f45524332303a20696e73756666696369656e7420616c6c6f77616e6365000000600082015250565b6000612015601d8361155c565b915061202082611fdf565b602082019050919050565b6000602082019050818103600083015261204481612008565b9050919050565b7f45524332303a207472616e736665722066726f6d20746865207a65726f20616460008201527f6472657373000000000000000000000000000000000000000000000000000000602082015250565b60006120a760258361155c565b91506120b28261204b565b604082019050919050565b600060208201905081810360008301526120d68161209a565b9050919050565b7f45524332303a207472616e7366657220746f20746865207a65726f206164647260008201527f6573730000000000000000000000000000000000000000000000000000000000602082015250565b600061213960238361155c565b9150612144826120dd565b604082019050919050565b600060208201905081810360008301526121688161212c565b9050919050565b7f45524332303a207472616e7366657220616d6f756e742065786365656473206260008201527f616c616e63650000000000000000000000000000000000000000000000000000602082015250565b60006121cb60268361155c565b91506121d68261216f565b604082019050919050565b600060208201905081810360008301526121fa816121be565b9050919050565b7f4f776e61626c653a2063616c6c6572206973206e6f7420746865206f776e6572600082015250565b600061223760208361155c565b915061224282612201565b602082019050919050565b600060208201905081810360008301526122668161222a565b9050919050565b7f45524332303a206d696e7420746f20746865207a65726f206164647265737300600082015250565b60006122a3601f8361155c565b91506122ae8261226d565b602082019050919050565b600060208201905081810360008301526122d281612296565b9050919050565b7f45524332303a206275726e2066726f6d20746865207a65726f2061646472657360008201527f7300000000000000000000000000000000000000000000000000000000000000602082015250565b600061233560218361155c565b9150612340826122d9565b604082019050919050565b6000602082019050818103600083015261236481612328565b9050919050565b7f45524332303a206275726e20616d6f756e7420657863656564732062616c616e60008201527f6365000000000000000000000000000000000000000000000000000000000000602082015250565b60006123c760228361155c565b91506123d28261236b565b604082019050919050565b600060208201905081810360008301526123f6816123ba565b905091905056fe2d2d2d2d2d2d2d2d2d2d2d2d2d2d2d2d2d2d2d2d2d2d2d2d2d2d2d2d2d2d2d2d2d2d2d2d2d446567656e4e46542d2d2d2d2d2d2d2d2d2d2d2d2d2d2d2d2d2d2d2d2d2d2d3330302044474e446567656e4b6579636861696e2d2d2d2d2d2d2d2d2d2d2d2d2d2d2d2d2d2d3130302044474e446567656e456d6f74652d2d2d2d2d2d2d2d2d2d2d2d2d2d2d2d2d2d2d2d2d3230302044474e2d2d2d2d2d2d2d2d2d2d2d2d2d2d2d2d2d2d2d2d2d2d2d2d2d2d2d2d2d2d2d2d2d2d2d2d2d2d2d2d2d2d2d2da26469706673582212201123421a2523a1cc98ba960035e324285a88b68ea83c5cba872cdbc6ad1f576864736f6c63430008120033",
  "linkReferences": {},
  "deployedLinkReferences": {}
}